:100000000C9434000C9446000C9446000C9446006A
:100010000C9446000C9446000C9446000C94460048
:100020000C9446000C9446000C9446000C94460038
:100030000C9446000C9446000C9446000C94460028
:100040000C9446000C9446000C9446000C94460018
:100050000C9446000C9446000C9446000C94460008
:100060000C9446000C94460011241FBECFEFD8E03C
:10007000DEBFCDBF21E0A0E0B1E001C01D92A830FD
:10008000B207E1F70E94A3000C94C7000C94000093
:10009000880F880F8C738AB98BB908958F7384B9D0
:1000A00085B908958091000190910101CB9749F4A1
:1000B0008091020190910301019690930301809336
:1000C00002018091020190910301489720F0109263
:1000D00003011092020180910201909103010895A1
:1000E0002FEF87EA91E6215080409040E1F700C071
:1000F000000080910001909101019C012F5F3F4F12
:10010000CB9749F0309301012093000180910001C9
:100110009091010108951092010110920001F6CF13
:100120006CE070E00E94B30008950E94520068E104
:1001300070E00E94B3000D9718F026982E9808954D
:10014000269A2E9A0895CCE0D0E00E9495000E9455
:100150005200BE010E94B3000E9448000E9470003D
:100160000E944E00F2CFAA1BBB1B51E107C0AA1F81
:10017000BB1FA617B70710F0A61BB70B881F991F48
:100180005A95A9F780959095BC01CD010895F894F2
:02019000FFCF9F
:00000001FF
